:10000000000800201D0300000000000000000000A8
:1000100000000000000000000000000000000000E0
:1000200000000000000000000000000000000000D0
:10003000000000000000000000000000DD010000E2
:100040002902000000000000000000000000000085
:10005000E1010000000000000000000000000000BE
:10006000F901000000000000000000000000000096
:10007000000000000000000000000000002934D053
:100080000123002210B488422CD301242407A1426A
:1000900004D2814202D209011B01F8E7E400A14227
:1000A00004D2814202D249005B00F8E7884201D3C2
:1000B000401A1A434C08A04202D3001B5C0822439A
:1000C0008C08A04202D3001B9C082243CC08A0420B
:1000D00002D3001BDC082243002803D01B0901D0F7
:1000E0000909E3E7101C10BC7047002801D000206C
:1000F000C04307B4024802A14018029003BDC046A5
:10010000D90000000029F0D003B5FFF7B9FF0EBCFD
:100110004243891A1847C046002941D010B4041C34
:100120004C40A44601230022002900D54942002862
:1001300000D5404288422CD301242407A14204D296
:10014000814202D209011B01F8E7E400A14204D276
:10015000814202D249005B00F8E7884201D3401A8D
:100160001A434C08A04202D3001B5C0822438C08AF
:10017000A04202D3001B9C082243CC08A04202D319
:10018000001BDC082243002803D01B0901D0090909
:10019000E3E7101C6446002C00D5404210BC7047B9
:1001A000002806D003DB0020C043400801E0802087
:1001B000000607B4024802A14018029003BDC046E1
:1001C000190000000029EBD003B5FFF7A7FF0EBC14
:1001D0004243891A1847C0467047C046FEE70000F0
:1001E000034B01221A71034B00211970DA6070472A
:1001F0006C03002000000850084B0120084AC02171
:100200001872890500230B710B721375054A923120
:100210005371537353755377087070476C03002004
:1002200000001050C000003038B5A025ED05EB7D72
:10023000DBB2022B16D005D8012B4AD1284B002265
:100240001A6046E0042B1AD0082B42D1244900231F
:10025000CB600B602A6A52BA0A61081D083102F0AD
:1002600037F936E01E4B5968002932D01A68986871
:1002700082422EDA501C18602B6A8B5429E0184CED
:100280006368002B24D0E268A1688A4209DA9B5C8B
:100290006B6223699A1890B202F064F9E368013343
:1002A00013E02369211CD218201D083102F010F937
:1002B0006368002B0BD02169E2681B7888182061E5
:1002C0006B6280B202F04EF90123E36001E0237C0F
:1002D0006B62A023DB0501221A73C0465A7338BD36
:1002E000B0020020A023DB050122492110B55A7479
:1002F000D970002119720221DA7299710F215A7195
:100300001A715972044BC02189005858FF24A04328
:1003100058501A6010BDC04600E100E0F8B5002357
:10032000414A42499A188A4204D24149C958043381
:100330001160F5E73F4B404A191D043B934203D23D
:1003400000221A600B1CF6E7EFF308823B4B191DE5
:10035000043B9A4203D93A4818600B1CF7E7FFF7B1
:10036000C1FF38493848043900F0E8FF374C85B2FE
:1003700001235B42281C23716371A371E37102F0B6
:1003800085F833490A1C0B1C3D323C3312781B782C
:1003900012021A43231C954243D12E4A2E4C158833
:1003A0002E48A5420BD04E7D15880A7D3602324379
:1003B000954204D1028892B21A71120A5A710288C7
:1003C000A2421BD0CE7D8D7D028836023543AA42E3
:1003D00014D100250422013AD2B2FF2A07D0204EC0
:1003E0008F18B65C3F79B742F5D10125F3E7002DB0
:1003F00004D0028892B29A71120ADA715A79197984
:1004000012020A43A2420CD0DA799979124B1202F5
:100410000A439A4205D0134B1B781C2B01D100F0E4
:1004200021F962B6FEE7C04600000020B0020020BD
:10043000642B0000B402002065030020AC03002000
:10044000CDCDCDCD00400000000000007A0300209B
:10045000C03F0000D03D0000FFFF0000BE3F000095
:10046000D43D000081001050014B18607047C04619
:1004700084030020014B18687047C04684030020A5
:10048000014B18607047C04688030020014B186874
:100490007047C0460000002038B5074C256801F0C1
:1004A000A1FA064AE860126823681178044A1268C3
:1004B000127C4A43DA8038BD000000208803002007
:1004C00084030020F8B500AF00F0E4FE84B0002003
:1004D0006C46032184B02060606001F07DF9174E06
:1004E0006D463368DB6858681B680190009301F023
:1004F000ADFE0B2820D10020032101F06DF93368F7
:100500006968DB6858680A1A6168914200DA6260BB
:100510001B682A682068D31A984200DA23600849C9
:1005200002234B707C235B42CB7001205223221CA0
:100530000B7101F06FFFDAE7BD46F8BD0000002047
:100540006000002008B500F0C9FC021E05D1044976
:10055000A9230B7101F05EFFFEE7FFF79DFF08BDC9
:10056000F002002008B5002002F092FA00F098FE98
:1005700008BD08B502F0B6FA02F08AFA00F090FE63
:1005800001F05EF808BD000070B5304C002523680E
:100590005A78AA423AD19D7802F0F8F98378002B74
:1005A00002D16BB2013303D122680025958010E09F
:1005B00023689988DA88914203D29988013189B2F7
:1005C000998002215956012903D09B88934200D378
:1005D0000125226893789D4209D01D4900202B1CDB
:1005E0000E33021C0B7101F015FF23689D70236808
:1005F0009A78002A03D1174A1268127804E0012A77
:1006000003D1144A12685278DA709D6A2268D07851
:1006100001F0EEF9061C281C01F00EFA301A01F068
:100620004FFA031C0120002B0AD02368D87801F070
:10063000DFF9041C281C01F0FFF9201A01F040FA30
:1006400001F080FA01F086FA70BDC046000000207B
:10065000F00200208803002008B502F0BDF900F088
:1006600009FD08BDF0B58FB001F0F0FD6E462636ED
:10067000307002F0EFF902F013FA00F017FCFFF708
:1006800061FF01F0E3FD6C462734051C207008284B
:1006900000D19FE019D8022860D0052800D18FE052
:1006A000002800D0D3E06B4B1F6801F0EDFD0AABD2
:1006B00078700C930A950B950D9502F06DF9052550
:1006C00000F0F6FE01F0F8F80BE00B2800D1ADE0E9
:1006D0000D2800D1B4E0092800D0B8E001F0ECFD0D
:1006E0008FE0012D0AD0002D28D0022D09D0052D34
:1006F0002CD101F097F8C0B201F0C2FE002001F049
:10070000AFFC01F067FF071C01F070FF079001F0DC
:1007100073FF504B3A1D1B68009002200190002788
:100720000CA802900397191CDB6834310493081C51
:10073000079B0AA900F06EF9052D06D1201C311C7B
:100740000CAA00F03DF9051C00E03D1C01F07EFD07
:1007500023788342C5D0FFF77FFF78E0FFF702FFE1
:1007600001F03AFD002001F09DF8FFF795FE01F041
:10077000A3FD01F0ABFD051E062D0BD0062804D805
:10078000052810D100F052FF0DE0142805D01728DD
:1007900003D008E000F054FF05E001F09FFD011CCC
:1007A000281C00F097FA01F051FD23788342E0D035
:1007B000FFF7DFFE002001F075F8FFF76DFE46E061
:1007C00001F07AFD01F0BCF801F040FD237883428E
:1007D000FAD03CE001F070FD1F49432300220320C2
:1007E0000B7101F017FE01F067F80020012100F005
:1007F000F3FF01F071F801F029FD23788342EBD07B
:1008000025E015494323002203200B7101F002FE6D
:1008100001F052F80120011C00F0DEFF01F05CF84D
:1008200001F014FD23788342EBD010E001F044FD89
:10083000FFF748FE01F00AFD23788342F8D006E076
:1008400001F03AFD01F002FD23788342FAD02378CB
:10085000337016E700000020F002002008B502F017
:10086000CFF800F007FC08BD70B502F03BF902F0CC
:100870008DF8061C01F008FD1C4C2368251C5A78D5
:1008800082421ED058705B78012B1AD01849002084
:10089000DF23021C0B7101F0BDFD301C002108227A
:1008A000143002F02EF9301C002108221C3002F016
:1008B00028F92368002158780124C0B202F0A0F87A
:1008C00011E001F0CBFC0024061C01F0CFFCA64295
:1008D00009D0201C01F0D2FC2B68211C587802247E
:1008E000C0B2FFF7BBFF201C70BDC0460000002057
:1008F000F0020020F0B50C1C2C49051CA62200209B
:100900000A7189B0021C01F085FDFFF73DFE281C2D
:10091000211C00F0C3F9264E051C33685A78012AC1
:100920000AD024490422CA70672202200A71DA68B8
:10093000487001F06FFD01E0032833D0336805AC47
:10094000DB6800215A681B680492201C0C22039368
:1009500002F0D7F80123237002200022042303AF02
:1009600063716070131CA070211C009701F018FDCA
:10097000114B1A68114B9A4202D000F0E1FFFEE7DA
:1009800001F0F6F833685978C9B2002902D1081C81
:1009900000F022FF336800201856FFF765FF00289B
:1009A00000D0051C281C09B0F0BDC046F002002094
:1009B0000000002060000020A8030020CDCDCDCD98
:1009C00073B5051C0C1C161C01F0E0FF00230093FE
:1009D000019322782B789A4203D001F06DFC2B789A
:1009E000237001F047FD041C00F01CFFA04204D05E
:1009F000201C00F01DFF05240AE0301C6946FFF7AB
:100A000079FF041E04D101F021FC2B788342E8D049
:100A1000201C76BDF0B589B00793002411AB0D1CE6
:100A20001C570692061C01F0D5FD0F9B05909A00FD
:100A3000281C002102F065F8002C06D1204B201C58
:100A400003211F6800F0D6FEB862201C00F016FFDC
:100A5000071C201C00F01CFF0E9A01900097301C10
:100A6000029406990F9B01F0CDFD059A1678002E91
:100A70000AD0201C032100F0AFFE281C12990F9A07
:100A800001F012FF013EF2E70F9B059A00931378E5
:100A9000281C019306990E9A079B01F013FF094C3D
:100AA0000E23A3710F9B04206370211C69232A1C51
:100AB000E070237101F0AEFCA67109B0F0BDC04634
:100AC0000000002060000020F0B587B01E1C0CABB9
:100AD0001B78041C5BB2171C0D1C019301F07AFDFE
:100AE00024780630C27F002C19D02B78934212DC78
:100AF0000133DBB22B70019A039346235B425343CD
:100B000010491033002003AA049705960B710024A6
:100B100001F080FC12E000232B7001240EE0019A0A
:100B200057235B42534307492033092003AA039705
:100B3000049605940B7101F06DFC2C70201C07B01D
:100B4000F0BDC04667000020F0B595B00691051CC9
:100B500001F040FD079001F049FD099001F04CFDC6
:100B60004C4F00263B680EAC5E619E612B6808907E
:100B700059681B688A0B9B0B311C0B92201C0C22A2
:100B80000A9301F0BEFF012323707C235B42022203
:100B900063710AAB6270A270211C0093321C331C7B
:100BA000092001F0FDFB396802264B78002B50D15B
:100BB000079A384C0432236805922A68191CDB68AE
:100BC0000092099A013E0292089A01961268143125
:100BD00003920698059A00F013FB00280CD12268B6
:100BE0000899D2784B68009269220292019628688F
:100BF0000699059A01F094FE002ED9D126497C234E
:100C00005B42CB7001206A23069A02240B714C7060
:100C100001F000FC3B68079D99695A69181C6B69D3
:100C2000AD693030009500F045F93B68181C191C7F
:100C30009A6930305B6931310096FFF745FF002833
:100C400007D03B68311C5878C0B2FFF707FE201C64
:100C50001DE00CAD11AC06990822281C01F048FFDC
:100C600000210C22201C01F04CFF02236370A370B2
:100C70007C23012000225B4220706371211C131C25
:100C8000009501F08DFB069800F052F9002015B098
:100C9000F0BDC046000000206000002038B50C1CEC
:100CA000051C01F073FE094B002118681422143052
:100CB00001F027FF211C281CFFF746FF041E03D16B
:100CC00000F056F900F0D6F9201C38BD00000020D5
:100CD00070477047F0B58DB00026051C02910822C0
:100CE000FF2105A804AC0796089601F00AFF301C06
:100CF000268001F0B5F9301C311C00F06DFD172D78
:100D00003DD1029E002E02D1604B1B689E7C002EBE
:100D100035D00020011C00F05FFD5D4F08993B6855
:100D2000DB685B681A1E8A4200D20A1C0699089288
:100D30008B4200D90B1C06937F21D31AFD2B01D8BF
:100D40005B08D9B26B4600205974011C00F044FDC9
:100D50003B680799DB681B681A1E8A4200D20A1C8E
:100D6000059907928B4200D90B1C05937F21D31A5A
:100D7000FD2B01D85B08D9B22170013EC7E7454B76
:100D800000211878444BC0B200930822434B01F075
:100D900005FC142D06D0172D5FD10125FFF799FF13
:100DA0002F1C5DE0029B002B03D1384B1B685B7C42
:100DB0000293029D002D42D008AE0224002000F0D4
:100DC00067FD002000F05AFD354B00211B68013CF7
:100DD0001A1C2E32383317781B78324A381C5A4383
:100DE000314B03920093FA230722DB0001F0D6FB7C
:100DF0002D4B00210093FA230722DB00381C01F061
:100E0000CDFB234B0A211A68231C0C339B00D318FB
:100E100098881B7980046922800D1B0750431B0FA3
:100E20002A225343C018039B043EC018FFF774F9ED
:100E3000736818187060002CC0D1013DBAE708989B
:100E40000299FFF71BF9029908900798FFF716F926
:100E500007AC0790FFF73CFF01E007AC0025042733
:100E600009AE0C22301C002101F04BFEED010123E4
:100E700033702F430223301C211C7370B370337105
:100E8000777101F033FA0DB0F0BDC0468403002045
:100E9000000000203200003030750000F0550000E6
:100EA0008C0300201A4F00002823000008B501F031
:100EB00035F908BD10B5002A02DDD14205D50AE09A
:100EC000002A02D10124994206DB029B01249A42A6
:100ED00002DC002400E00124047010BD08B50122EA
:100EE000104B52421A8700F0B3FCFFF7FBF900F0F9
:100EF00083FB00F0EDFA00F09FFA00F039FA00F001
:100F0000A2FA00F0B9FA00F069FE62B6064B1B685F
:100F10001A78064B1B68002A01D0012200E0022249
:100F20001A6108BD000010509003002058000020F6
:100F300038B50E4B051C1C6800232370FFF7A6FA7A
:100F400043785A42534142785B00002A0DD15A1C23
:100F50009200A2180432013B07D399006958002976
:100F600000DC00211160043AF5E738BD8002002062
:100F7000F0B53C4B85B01C6801F0E0F9002323700C
:100F8000FFF784FA261C0090251CA21E4378271C1C
:100F9000083610350392039B9F4261D0009A537824
:100FA000002B05D1304B1B681A7801929B78029375
:100FB0002B68002B09D02A69002A01DC019A00E085
:100FC000029A934201DA00232B60009B5A78D2B236
:100FD000002A0FD1E368333B622B0BD82369333BE4
:100FE000622B07D82149F023E2602261101C0B71AB
:100FF00001F010FA2B681C4A002B16D033881C49CC
:1010000018B2884201D0013333800023F15E1368A7
:101010009B79994203DC01235B422B6002E0237839
:101020000133237000233B7116E011680022B05E8B
:101030008A7990420FDDAA68002A0DD038790130F4
:10104000C0B23871C97940B2884204DC2A60237882
:101050000133237000E03380013F023E043D9AE7F4
:1010600005B0F0BD80020020A0030020F0020020A7
:10107000FF7F0000F0B55F4B89B01B68049301F05F
:101080000BF9059001F010F9061C01F057F901F079
:101090004FF9071CFFF7FAF9049C02214378051C5D
:1010A00010340191002207AB1A809A706A78012AE5
:1010B00003D11A7840210A431A7007AB1A780F211E
:1010C0008A4301990A431A706B78002B05D14A4B69
:1010D0001B681A8802925B880393A26803992368AD
:1010E0008A421CDC02998B4219DB07AA1078802106
:1010F000494201431170042F04D1FF2B00DDFF236F
:10110000537045E0092F43D13C4A934200DD131C44
:101110005BBA07AA9BB253701B0A937038E002991E
:101120008A4202DB03998B4232DD6B78012B38D186
:10113000029B9A4235DB226803998A4231DB2D4BB0
:101140001B680533DB7F002B1DD1012E29D107AB96
:1011500018788021494201431970042F04D1FF2AD5
:1011600000DDFF225A700CE0092F0AD1131C234A1C
:10117000934200DD131C5BBA07AA9BB253701B0A93
:101180009370012305E0012B0BD1002EF9D008E06C
:1011900000236A78012A21D1002B17D007A801F07B
:1011A000D7F822680F232261019A043C013A1A40C1
:1011B000019200D076E704990B788B700D4B1B6879
:1011C0000533DE7701F0D8F809B0F0BD002EE8D085
:1011D00007A801F0BDF82268A260E2E76B78002B57
:1011E000DFD1059B002BDCD007A801F0B1F8216806
:1011F000A160D6E780020020A0030020FFFF0000CE
:10120000F0B5069D1F4EAC000E611D59531CDB7FCF
:10121000002B06D0069B079FFF5C089B7D435D4328
:101220006D13059F3B599B0B5B1B002B0DDD1C2792
:10123000D55FAB4218DB0F685D1BBD4200DA3D1C79
:101240000D608D6801358D600EE0002B0CD01E27DF
:10125000D55FAB4208DC4F685D1BBD4200DD3D1C25
:101260004D60CD680135CD600351B34200DA054BC6
:101270000B611821525ED817D10F93424841C0B27A
:10128000F0BDC0460080FFFF014B18607047C046AC
:1012900090030020014B18687047C046900300205F
:1012A000014B18607047C0468C030020014B186842
:1012B0007047C0468C0300201B4B30B500211C1C1E
:1012C0001A781A4889180133C9B28342F8D1184BE9
:1012D00000221D7801335219164DD2B2AB42F8D11B
:1012E0002478AA2C02D10078814201D0002004E0A9
:1012F0001B789A42FAD1012014E08022520383180D
:101300009B001B68FF2293430B4A934202D10028A3
:1013100002D107E0002B04D101300428EDD10220D6
:1013200000E0002030BDC0465000400057004000A3
:10133000580040005F00400000FFFFFF084B094AD3
:101340005864081A00219864118001221A64C0466A
:10135000054B1B88002BFBD0044B188880B27047CC
:10136000000010504C00105052001050500010500F
:10137000C0239B051A1C0321F23211705170114ACF
:1013800012683C3210781A1CF13210700D3A0A20A3
:101390001070181C0122943002704170191C903199
:1013A000FF330A70CA709A72074BC2229200995892
:1013B000FF208143402001439950802252001A604F
:1013C0007047C0468C03002000E100E00A4B002972
:1013D00002D0D96F014301E0D96F8143D967074B30
:1013E000002A02D01A6C024301E01A6C82431A648C
:1013F0001A68104318607047040002500000025041
:10140000074BC243002903D0D96F0843D86702E0D5
:10141000D96F1140D967034B196C0A401A647047A1
:101420000400025000000250024B1A6C1043186472
:101430007047C0460000025008B501200021021C80
:10144000FFF7C4FF08BDC0239B05191C0322AF3161
:10145000181C0A70AE30002101700238027004229C
:101460000271C271063002701A1CB1321170B433AD
:1014700001221A70704700000A4BFF201B681A7B7C
:10148000094B9A7400225A7401221A74074BC12224
:1014900092009958814380200143995010221A608C
:1014A0007047C0468C0300200000105000E100E0AF
:1014B000024B00221A605A607047C0460C0100308F
:1014C000024B0122DA770022DA77704705000030FC
:1014D00038B5394D2B689A68C0239B051A63374B82
:1014E00001221A70FFF7E8FE01283CD1344A354B3F
:1014F00011780F2902D81278D2B200E00022DA77F0
:101500002A68937A022B01D12F4B06E0042B01D1DC
:101510002E4B02E0062B07D12D4B1978092903D851
:1015200019782C4BC9B219701378A02B01D12A4A13
:1015300006E07D2B01D1294A02E0B02B02D1284AD6
:101540001478E4B2E4B2211C2031C9B2254A402902
:1015500002D8E418E4B21470234B117A1B78CB182C
:10156000DBB2137225E0022823D18022D203117846
:10157000144B0F2902D81278D2B200E00022DA7799
:101580002B681B78A02B01D1184A06E07D2B01D1D6
:10159000174A02E0B02B02D1164A1478E4B2E4B242
:1015A000221C1032D2B2202A03D8E4180D4AE4B229
:1015B0001470FFF785FF38BD8C03002080000030D9
:1015C00058004000080000305B0040005A00400016
:1015D00059004000320000305100400052004000ED
:1015E0005300400000001050540040000400400030
:1015F000080040000C004000C0239B05191C10B5DA
:1016000000222A31181C1C1C0A70283401212B309E
:1016100001702170233862700824C477D81D063306
:10162000C177DA77FFF74CFF10BD000008B5034B18
:1016300000211B681869FFF7E3FE08BD5800002071
:1016400008B5034B1B681869FFF7EEFE08BDC046DE
:1016500058000020044A054B12681B6810691840A6
:1016600043425841C0B2704758000020C0000250A9
:101670000A4B1B695A0706D5A023DB051A7E002AF0
:10168000FAD101221A7472B6054B1B5C002B03D1F0
:10169000C04630BF62B6EBE762B6704700ED00E0CF
:1016A0006C0300200A4B1B695A0706D5A023DB05F3
:1016B0001A7E002AFAD101221A7472B6054B1B5CFD
:1016C000002B02D1C04662B6ECE762B67047C04656
:1016D00000ED00E06C0300200D4B1B685A78002AD7
:1016E0000ED00C4952B252000868511D8900591899
:1016F000486009490432096892009B18596005E066
:10170000064A12689A61064A12685A617047C046D2
:101710005800002018010030140100301001003082
:101720000C01003038B5C0239B051A1C0024303250
:1017300014705032147001259A1DD577DA1DD477B4
:101740002833223215701C70FFF7BAFE024BDD7091
:101750001C7032331D7038BD0000105038B500F0D9
:1017600089FE0C4A0023C0241070A405D3703232C5
:1017700013700125E21DD577A21DD3772232157093
:101780005370FFF79DFE231C803330341D7025708D
:1017900038BDC046000010500B4A08B50023137234
:1017A0000A4A1268D17B0A4A1175C02292050121AA
:1017B00011701172074A1370984204D00820FFF785
:1017C00057FFFFF789FF08BD6C0300208C03002042
:1017D000000010509200003010B5041C00F000FA18
:1017E000034B01201B685C70FFF7D6FF10BDC0469D
:1017F0005800002010B5041C00F0D4F9201C00F0A3
:10180000EFF9074B00201B685C70FFF7C5FF08204D
:10181000FFF748FFFFF760FF00F0D2F910BDC046A8
:1018200058000020014B1878C0B2704700001050DB
:10183000064A1378DBB2834206D001DA013300E0B6
:10184000013BD9B21170F6E77047C0460000105056
:10185000084B1A68084B507B591CC877107C991CA0
:10186000C877012159751168196051689960927B98
:101870001A7370478C03002000001050034B1B6844
:10188000D87D9B7DC01A01307047C0468C03002074
:10189000002803D1024B1B68588BFFE77047C046F6
:1018A0008C03002008B5FFF7D3FFFFF711FEFFF709
:1018B0005FFD00F093F908BD10B5054C01232373BB
:1018C00000218022034801F01CF90023237310BD7E
:1018D000FF00003000000230F0B5164E012389B041
:1018E000337368460021202201F00BF91023013BDD
:1018F00008D32F21104AC91A4900895A68465A004C
:101900008152F4E70D4CB32310270225211C03203C
:10191000094AE5702371677000F07CFDE5700320D3
:101920000025211C6A466770257100F073FD357330
:1019300009B0F0BDFF000030000002306000002060
:10194000F7B5234800F078F800F01CF9214F002586
:10195000214E224CB7421FD28036F31B2026832B08
:1019600000DC9E100123667000203A1C211CB6107A
:10197000E370207100F04EFD3B1C321C013A08D38D
:10198000002D04D116491868884200D01D1C04336C
:10199000F4E7B600BF19DBE70E4904226B1A0127F2
:1019A0000193E270A723211C01AA00206770237114
:1019B000843600F02FFD0423751BE3700020A8235C
:1019C000211C01AA01956770237100F023FDF7BD6A
:1019D000801A0600A8030020800700206000002075
:1019E000CDCDCDCD014B1868143070475800002084
:1019F00070B50D4BFF2419781E7B631A89214900AD
:101A000059430A4B051CC9180948FEF785FB084BCA
:101A1000F6B25843074BB600F1580C40291C6143FD
:101A2000FEF77AFB70BDC04600001050195300004D
:101A300040420F00142B000070B50B4BFF241978A7
:101A40001D7B631A892149005943084B061CC9189C
:101A50000748FEF761FBEDB2064BAD00E958704355
:101A60002140FEF759FB70BD0000105019530000D3
:101A700040420F00142B000010B50C4B0C491A7B90
:101A80001B7892008C5C0B4A444312680A489168A8
:101A9000CB1A8921FF3349005943084BC918FEF777
:101AA0003BFBC1B2201CFEF737FB10BD00001050FD
:101AB000142B00005800002040420F001953000072
:101AC000F7B5194BFF251A7B1F78197A9C7A93007A
:101AD000E4B20094154C691A1B59154A434301930B
:101AE000144B154859438918FEF716FBFFB289219C
:101AF000ED1B49006943114B061CC9181048FEF73D
:101B00000BFB011C301CFEF707FB019A032350431B
:101B1000009AFA2113409B00E418236C8900594372
:101B2000FEF7FAFAFEBDC04600001050142B00006C
:101B30005CAA0900350C000000CA9A3B195300004A
:101B400040420F00024B00221A709A709860704752
:101B500000000850044B00221A71044BDA609A709E
:101B60005A7001221A7070476C0300200000085060
:101B700008B5FFF7D7FD0420FFF77AFDFFF7EEFD6C
:101B800008BD00000002064B000A01380022586020
:101B90009A6005221A60C0461A68D103FCD57047C6
:101BA00010E000E0044B054900221A6059609A6079
:101BB00005221A607047C04610E000E0FFFFFF00FA
:101BC00010B5044C0448A368C01AFFF755FF002362
:101BD000236010BD10E000E0FFFFFF000120704710
:101BE000F7B5051E03D14A4B1C68143404E00128E4
:101BF00002D1474B1C684834206A464B464918605E
:101C0000A27E464B46481A70227A464B464E1A70C0
:101C1000A27B464B1A70E27D454B1A70E37CCB7079
:101C2000A27C444B1A70236BDAB2434B1A70227FAA
:101C3000424B1A70E27F424B1A70A27F414B1A70DE
:101C4000E18CFEF769FA231C2A331B7803384343DF
:101C5000DA17520ED218231C2B331B78D2114343B0
:101C6000DF177F0EFF18231C2C331B78FF117B43DB
:101C7000D917490ECB18DB110193231C29331B788C
:101C800031495843C3175B0E1818C011C0B2087011
:101C9000D10F89182D484910C9B201700078D2B20D
:101CA000101AC0B230702A48FFB20770201C2830CA
:101CB00007782848184E07702748284B0170284895
:101CC000012101700078121A0198033A1218254870
:101CD000D2B20270227C3270002D18D1224A1068D4
:101CE000827A59711A71621DD57F5D72C07A5973FB
:101CF0001873D27FC0205A7402221A7080238B403E
:101D000021688005C150626882235B00C250F7BD24
:101D10008C030020980000308C00003096000030CA
:101D2000204E000084000030EC0000308A000030BB
:101D3000930000308E000030AC000030B000003066
:101D4000B3000030B2000030EA000030EE00003096
:101D5000ED000030F1000030F0000030C000003035
:101D6000EF000030EB00003090030020F0B585B0AC
:101D7000002905D0012906D100250295022402E0A0
:101D8000022302930C1C194B62001B6882180393F8
:101D9000231C029E191BB14226DA154E1188DF0062
:101DA000BE19F180191C039D0C3189006918019638
:101DB00015888E88AD05B4460E4EAF0C65462E4094
:101DC0003E43071C8E800837161AF55D0097019F69
:101DD00002323D72009D0F79765B0F252E40AF4396
:101DE0003E430E710133D4E705B0F0BD0000002082
:101DF000C00000300FC0FFFFF7B5019208AA1278AB
:101E0000009352B2002A04D0012A04D100250226F0
:101E100001E00225161C740000190024AC4215DAFA
:101E2000114FF3191F19BF003B689C46019B9C454D
:101E300002D907887F1A05E03F68009B9F4202D2C3
:101E400007887F18078001340230E7E70749084F09
:101E50000423D200CB70D2193F2308204D700B71A0
:101E600000F0D8FAF7BDC0464300000C6000002027
:101E70000C010030F0B5434243415B008FB0029348
:101E8000051CFFF7FBFC041C281CFFF701FD714B30
:101E90001968002D01D14A8800E0CA886243424394
:101EA000D117490E8A18D21103921B68002D01D157
:101EB0009B8800E01B895C434443E3175B0E1C19BD
:101EC000E41106940994644C039AE3787F260892FF
:101ED000B343042780223B435242134302216170E3
:101EE000E37000204723211C08AA237100F092FA16
:101EF00080239B006A461385694608220A86191CBE
:101F00006B465985131C6A465386E3780299B3439E
:101F10001F43524A3F23C9B22371EB009A1837403E
:101F2000029161700820211CE770079200F072FA9C
:101F3000029B02216370E3780AAAB3430B43334048
:101F4000E37041232371AB00D2180820211C0492B6
:101F500000F060FA029B6F006370E3780221B343E4
:101F600004370B437F000AAA1E40D21942230820DF
:101F7000211CE6702371059200F04CFA80270A2696
:101F8000BF00013E7F10002E1AD00AA8291CFFF7BF
:101F9000EDFE281C0021FFF71FFC0AA8391C039A3C
:101FA000069B0095FFF728FF2B49029B08204B70EA
:101FB0000223CB70049A41230B7100F02BFAE0E767
:101FC00004260827013E7F100AA8291C002E18D0DD
:101FD000FFF7CCFE281C0021FFF7FEFB0CA8391CE4
:101FE000039A069B0095FFF707FF1B49029A0223FD
:101FF0004A70CB7008204223059A0B7100F00AFA50
:10200000E0E7FFF7B3FE281C311CFFF7E5FB029B5E
:10201000301C63700423E370211C4023079A237152
:1020200000F0F8F90299022561704123301C211C4F
:10203000049A2371E57000F0EDF9029A4223627070
:10204000301C211C059AE570237100F0E3F90FB0F4
:10205000F0BDC04690030020600000200C0100305D
:1020600008B5FFF707FF08BD014B18607047C04671
:102070009403002070B5FEF7FDF9051CFFF70AF97F
:10208000244C291C2068102200F032FD224B2268CB
:10209000597E1E7E0902022531439E7E95751A1CCB
:1020A00008323604A26031436269DE7E0F2063602D
:1020B00036061070E26831430E0A117056700E0C2D
:1020C000090ED170597F96701E7F090231439E7FA1
:1020D00036043143DE7F360631430E0A11715671E4
:1020E0000E0C090ED171191C2D331B782C31097877
:1020F0001B020B4313721B0A5372A36996719D70E6
:10210000D870E3691A6800221A6004221A715A71A1
:1021100070BDC04670000020D03F000038B5FEF70B
:10212000A9F9FFF7B7F8124CA56A00F0AFFC686098
:10213000FFF7A0FF0F4B226B1B681B88190A517118
:1021400013710221042B03D00021092B00D103219C
:10215000231C3C33917101225A7000229A7000F0C6
:1021600091FC054B04225860236C1A7038BDC046A0
:102170007000002094030020F802002008B5084AEF
:10218000916C4B780749DBB20B72012B05D0022B07
:1021900005D1536C01225A7001E0FFF747FA08BDE0
:1021A00070000020F8020020094B10B51B7A094C82
:1021B000012B05D0022B05D1626C0023537001E086
:1021C000FFF73EFA636B7F211A788A431A7010BDBD
:1021D000F802002070000020F8B5194D0024194EB7
:1021E000337A012B07D0002B18D0022B17D1164BB6
:1021F0005B6C5C7813E0FFF72DFA041C002D0BD10B
:10220000FFF71EFA2E23FF33013B002B01D0C046FF
:10221000FAE7FFF70BFA0A4D013D00E01C1C0A4FDC
:10222000BA6C5378327A9A4206D0FFF7BDFFBB6C86
:10223000044A5B78137201E0002CD0D1F8BDC0468F
:10224000FF2C0100F802002070000020024B9B6C64
:102250001878C0B27047C04670000020024B9B6CDB
:10226000187DC0B27047C04670000020024B9B6CC6
:10227000587DC0B27047C04670000020014B9B6C77
:102280001875704770000020024B9B6CD878C0B264
:102290007047C04670000020024B9B6CD87DC0B2D6
:1022A0007047C04670000020024B9B6C187EC0B285
:1022B0007047C04670000020034BA0225B6C1A7070
:1022C0001A78A02AFCD0704770000020024B1B6DCA
:1022D0001878C0B27047C04670000020024B1B6DDA
:1022E0009878C0B27047C046700000200E4B30B5E1
:1022F0001A6DFF2414700D4C5865216005788478A0
:10230000996A6C430579407964194006400E604330
:102310000860586CA0210170996C1378FF2B02D1D2
:102320000B78022BF9D030BD70000020F80200209D
:10233000014B1B68188870479403002008B5FFF70D
:102340004BFF024B0022DA6008BDC046F8020020B5
:1023500070B5074B074C1A6BE668011C9579986BB2
:102360002A1C8019751900F0C3FBE56070BDC046DA
:1023700070000020F802002008B5074BDB68002B36
:1023800009D0064ADBB2506B7F21194001703C3204
:102390009370FFF7F3FE08BDF802002070000020E4
:1023A00073B56C46E271194A0734D56D2E788642B2
:1023B0002AD1FF2028709366131C9C331B68207859
:1023C0009B688000116654661871114B06980C7852
:1023D00018608878936A60430C7949790019490636
:1023E000490E41431960516CA0230B70D16D936C61
:1023F0000A78FF2A02D11A78002AF9D00A78FF2A2F
:1024000002D11A780A2AF3D073BDC04670000020AA
:10241000F802002070B5144CE36B1D79EDB2012D6C
:1024200021D1854058781E78000230439E783604CA
:102430003043DE7836063043284214D0FF2018712E
:102440000A48216402608C780D78C9786C4349068B
:10245000490E074A6143906A526C016077211170FE
:102460001A79FF2AFCD070BDF0000020F80200208D
:1024700070000020014B5B6C98787047F0000020E2
:10248000014B5B6C98707047F0000020024BDB68DA
:102490009872000AD872704770000020014B5B6987
:1024A0009872704770000020014B5B69D8747047C8
:1024B00070000020014B5B69D875704770000020E8
:1024C000024B5B691877000A58777047700000204C
:1024D000002303600B60204BF7B59A423ADC1312DD
:1024E0001E4C122B25D89B00E418E46E002C31D032
:1024F000E368013B5D1C2DD0D5B2019565681E1CBB
:10250000EF5C019D013BED1BF4D42768B300DB5960
:10251000002B1FD0A268925D521B0A60002A02DDC8
:102520005D19056016E00E4B483303605B780B6065
:1025300010E0E36A666A013B0CD35D00755B551BD6
:10254000F9D4266A9B00F25852190260A26AD35845
:102550005D1B0D60F7BDC046FFEF0000700000205E
:10256000F0000020C02208B5D2000B4B904206D1EB
:102570005B6C1A78052A0DD005221A700AE05B6B95
:1025800084221B7892005B065B0E9B18984201D157
:10259000FFF70AFE08BDC0467000002038B5051CD4
:1025A0001C1C181C8D4209DB0498954206DAC01ADF
:1025B0006D1A6843511AFDF7AFFD201838BD0000B1
:1025C00008B5034B1860007FFFF774FF08BDC046D5
:1025D00098030020014B18687047C04698030020FC
:1025E000014B18607047C0469C030020014B1868DF
:1025F0007047C0469C030020014B18687047C046D6
:102600007C020020F0B595B0099300271CABDF5782
:1026100005900191161CFDF739FF0690FEF746FE66
:10262000002F05D1383003789C4D02975D430AE0B6
:10263000012F06D16C300378984D02215D43029141
:1026400001E000250295964900203823021C0B71F9
:10265000FFF7E0FE029A05999300059AC918043322
:10266000D3180791002208938021099B04910092BE
:10267000141C5A1E0392002B4ED0012F34D1039B01
:10268000002B11D10799692308882A228004800D24
:1026900058430B780A211B071B0F5343C0184019DE
:1026A000FDF73AFD041C35E0039A012A32D1089B5C
:1026B0000899188869238004800D58430B782A22D2
:1026C0001B071B0F5343C01840190A21FDF724FDB7
:1026D000019A0090508900281CD0C0010021FDF70C
:1026E0001BFD80B2049015E00299039A8B1805999E
:1026F0009B00CB1818881B7880046922800D1B076B
:1027000050431B0F2A225343C01840190A21FDF7DA
:1027100003FD2418039BACE7012F04D0201C09996A
:10272000FDF7ACFC041C019B9D88002D02D1802389
:10273000336007E0E801211CFDF7A0FCDC2800DD88
:10274000DC203060019964220B881B995A431A9B44
:102750005A434A43D3175B0E9B18019ADB1101328F
:10276000D27F002A02D032685343DB117360049B8E
:102770004C495C4302234B707C235B42E409CB70E1
:1027800000205F230AAA0A950B940B71FFF742FE03
:10279000012F00D080E0009988B2FFF791FE019AE6
:1027A000069D168D4E352E80D488002C21D0177BA7
:1027B0006421381C64306043FDF7AEFC009B83420B
:1027C00008D86421CF1B381C6043FDF7A5FC009995
:1027D000814204D2069B00224C331A7009E0009A11
:1027E000944206D0101C141970436108FDF746FC92
:1027F0002880019B0499DC88009B019A4B43DB09EC
:1028000010941193158D009B211C5D43281CFDF72E
:1028100035FC009912900C196108281CFDF72EFC5C
:10282000204C7F27E3780426BB4380223343524267
:1028300013431390E37000206023211C10AA6670DC
:102840002371FFF7E7FD019900250B8980210C9387
:10285000E3784942BB4333430B4302226270E37087
:10286000281C6123211C0CAA23710D95FFF7D2FDB2
:10287000019A8021538949420E9302236370E378C1
:10288000281CBB431E430E436223211C0EAA0F9536
:10289000E6702371FFF7BEFD15B0F0BD1A4F0000C2
:1028A000F00200206000002070B59300C018C91825
:1028B0000023043B013A04D3C558CE58AC19C45088
:1028C000F7E770BDF7B5089C051C0091171C019334
:1028D000013C12D3A600A8590999FDF7CFFB009B34
:1028E0000133DB7F002B05D0019A135D58433B6811
:1028F000584340138003A851EAE7084C089A0E2376
:10290000A3716270042044232A1C211C2371E070EF
:10291000FFF780FD0023A371F7BDC04660000020D3
:1029200070B5161C059A940005191A20325E0C59D0
:10293000944200DA141C0499181CFDF7EDFB444383
:10294000B3782A681C41141B2C60084C0E23A37119
:10295000069B012604202A1C211C6670E07023714E
:10296000FFF758FD0023301CA37170BD60000020EC
:1029700010B5054C20600078FFF790FD236898782B
:10298000FFF792FD10BDC046A0030020014B186860
:102990007047C0468002002038B50E4C08252068DC
:1029A0002A1C00210C3000F0ACF820682A1C002101
:1029B000143000F0A6F8206800210422063000F050
:1029C000A0F823680021D97019712068242200F032
:1029D00098F838BD80020020084B10B51C68002113
:1029E000A01D042200F08DF80021201CE17021714F
:1029F00008220C3000F085F810BDC046800200208F
:102A0000134B70B51E68002804D1002907D1022499
:102A10000D1C06E0012904D10024251C01E0041C42
:102A200002256800301862000021063000F069F8C5
:102A300070190235AD007619221C0021033000F018
:102A400060F8301DA200002100F05BF870BDC046A8
:102A50008002002010B5094C201CFEF715FC201C3C
:102A60000C30FDF701FD201C2030FFF7FDFAFEF7CA
:102A700011FC0348FFF7B4FD10BDC046E43D000063
:102A8000C43E000000487047E43D0000E02070476D
:102A9000BC235843014B181824307047E43D000014
:102AA0000D4B10B51B68BC241B785C430B4B2034CA
:102AB000E4180B4B201D1860FEF7F2FB201C803041
:102AC000FDF7DEFC201C8430FFF77AFD201CB430BB
:102AD000FFF74EFF10BDC046AC020020E43D0000F1
:102AE000A4030020014B1B6818787047AC0200203B
:102AF00010B50023934203D0CC5CC4540133F9E7F2
:102B000010BD031C8218934202D019700133FAE7FA
:102B10007047FFFF000000000200000003000000FB
:102B2000040000000500000006000000070000008F
:102B3000080000000A0000000C0000001000000067
:102B400014000000180000001C000000200000001D
:102B50000100000002000000040000000800000066
:102B600010000000040000200000FF000000000032
:102B70000000000000000000000000000000000055
:102B80000000000000000000000000000000000045
:102B90000000000000000000000000000000000035
:102BA0000000000000000000000000000000000025
:102BB000000000000100000000000000C40200202E
:102BC000F702002001000000000000010300840063
:102BD0000000000039030020000000000000000099
:102BE0002D0300206F02002051020020150200205A
:102BF00018030020F80200203A01002008030020FA
:102C00000200000026030020250300201F030020EF
:102C100007000000170300204F02002034020020AC
:102C200024020020210200200000000019020020E0
:102C30001E03002000000000000000000000000053
:102C400000000000F0010020DC0100200000000076
:102C50000000000000000000C8010020B4010020B6
:102C600000000000000000009C01002000000000A7
:102C700080010020000000000000000000000000B3
:102C800068010020540100204001002011020020B2
:102C90000C020020000000001203002000010020B0
:102CA00000600000340100201003002050010020CB
:102CB0000100000005000000B0000020110300200A
:102CC0006401002001000000010000002801002034
:102CD0007B010020780100200300000004050700AC
:102CE00010200000C8000020950100209001002065
:102CF0000500000008010C01040010203031000024
:102D0000BC000020AF010020AC0100200300000047
:102D100008030C001020000088000020C6010020DD
:102D2000C40100200200000004060010B4000020CE
:102D3000DA010020D801002002000000021B001070
:102D4000A0000020EC010020AC00002003000000E7
:102D50000010110070000020060200200002002078
:102D6000060000001708080C0A1E002030405070B2
:102D700001000000000020060100010000002010FA
:102D8000020E020000FF000000200302600090001D
:102D90003002002000600901000100000000000076
:102DA0000000000000000000000000000000000122
:102DB000010000050000483248534D450000000066
:102DC0000000000000000000000000000000000003
:102DD0000000004D495000000000000905000000FF
:102DE0005C030020840200200000000000000000BE
:102DF00000000000000000000000000000000000D3
:102E000000000000000000000000000001000000C1
:102E100064030020FFFFFFFFFFFFFFFFFFFFFFFF37
:102E2000FFFFFFFFFFFFFFFFFFFFFFFFFFFFFFFFB2
:102E3000FFFFFFFFFFFFFFFFFFFFFFFFFFFFFFFFA2
:102E4000FFFFFFFFFFFFFFFFFFFFFFFFFFFFFFFF92
:102E5000FFFFFFFFFFFFFFFFFFFFFFFFFFFFFFFF82
:103DD0001501FFFF483248535041524130303030D6
:103DE000303030300100E40CB80BE40CB80B0001AB
:103DF000323031375F4A355F4B45590000000000D3
:103E00000A1E0A0009000000A00800009401000139
:103E1000010004000001030F030000003001032C27
:103E2000000004000100000000000100100009096A
:103E3000010101010103070003000404030800005D
:103E400000005E010540202000000000030000008B
:103E500030050E2100006C00010000000000010090
:103E6000080009080101010101070700040004041A
:103E700006040300010064000A2B2A2A0000000047
:103E8000030000005A5A0F0F03000000C800010091
:103E900000000000000000000000000074FFFFFFB1
:103EA000DC0500004100BFFF3200CEFF0102000030
:103EB00000000000000000006400320096000201D3
:103EC000040000002D31FFFFFFFFFFFFFFFFFFFF9A
:103ED000FFFFFFFFFFFFFFFFFFFFFFFFFFFFFFFFF2
:103EE000FFFFFFFFFFFFFFFFFFFFFFFFFFFFFFFFE2
:103EF000FFFFFFFFFFFFFFFFFFFFFFFFFFFFFFFFD2
:103F0000FFFFFFFFFFFFFFFFFFFFFFFFFFFFFFFFC1
:103F1000FFFFFFFFFFFFFFFFFFFFFFFFFFFFFFFFB1
:103F2000FFFFFFFFFFFFFFFFFFFFFFFFFFFFFFFFA1
:103F3000FFFFFFFFFFFFFFFFFFFFFFFFFFFFFFFF91
:103F4000FFFFFFFFFFFFFFFFFFFFFFFFFFFFFFFF81
:103F5000FFFFFFFFFFFFFFFFFFFFFFFFFFFFFFFF71
:103F6000FFFFFFFFFFFFFFFFFFFFFFFFFFFFFFFF61
:103F7000FFFFFFFFFFFFFFFFFFFFFFFFFFFFFFFF51
:103F8000FFFFFFFFFFFFFFFFFFFFFFFFFFFFFFFF41
:103F9000FFFFFFFFFFFFFFFFFFFFFFFFFFFFFFFF31
:103FA000FFFFFFFFFFFFFFFFFFFFFFFFFFFFFFFF21
:103FB000FFFFFFFFFFFFFFFFFFFFFFFFFFFF1501F9
:103FC0004D425401483248530000000000400000B8
:103FD000EEEE040115011501EEEEEEEE000F0F10EE
:103FE000002209012E020000120417205940170078
:103FF0000000000000000000000040008A7800007F
:00000001FF
